{
  "contractName": "Election",
  "abi": [
    {
      "inputs": [],
      "payable": false,
      "stateMutability": "nonpayable",
      "type": "constructor"
    },
    {
      "anonymous": false,
      "inputs": [
        {
          "indexed": false,
          "internalType": "address",
          "name": "_candidateAddress",
          "type": "address"
        }
      ],
      "name": "candidateRegistered",
      "type": "event"
    },
    {
      "anonymous": false,
      "inputs": [
        {
          "indexed": false,
          "internalType": "address",
          "name": "_candidateAddress",
          "type": "address"
        }
      ],
      "name": "electionStarted",
      "type": "event"
    },
    {
      "anonymous": false,
      "inputs": [
        {
          "indexed": false,
          "internalType": "address",
          "name": "_voterAddress",
          "type": "address"
        }
      ],
      "name": "voteCasted",
      "type": "event"
    },
    {
      "anonymous": false,
      "inputs": [
        {
          "indexed": false,
          "internalType": "address",
          "name": "_voterAddress",
          "type": "address"
        }
      ],
      "name": "voterRegistered",
      "type": "event"
    },
    {
      "constant": true,
      "inputs": [
        {
          "internalType": "uint256",
          "name": "",
          "type": "uint256"
        }
      ],
      "name": "candidates",
      "outputs": [
        {
          "internalType": "string",
          "name": "candidatename",
          "type": "string"
        },
        {
          "internalType": "string",
          "name": "partyname",
          "type": "string"
        },
        {
          "internalType": "bool",
          "name": "registered",
          "type": "bool"
        }
      ],
      "payable": false,
      "stateMutability": "view",
      "type": "function"
    },
    {
      "constant": true,
      "inputs": [
        {
          "internalType": "string",
          "name": "",
          "type": "string"
        }
      ],
      "name": "candidates_registered",
      "outputs": [
        {
          "internalType": "string",
          "name": "candidatename",
          "type": "string"
        },
        {
          "internalType": "bool",
          "name": "approved",
          "type": "bool"
        }
      ],
      "payable": false,
      "stateMutability": "view",
      "type": "function"
    },
    {
      "constant": true,
      "inputs": [],
      "name": "endTime",
      "outputs": [
        {
          "internalType": "uint256",
          "name": "",
          "type": "uint256"
        }
      ],
      "payable": false,
      "stateMutability": "view",
      "type": "function"
    },
    {
      "constant": true,
      "inputs": [],
      "name": "startTime",
      "outputs": [
        {
          "internalType": "uint256",
          "name": "",
          "type": "uint256"
        }
      ],
      "payable": false,
      "stateMutability": "view",
      "type": "function"
    },
    {
      "constant": true,
      "inputs": [],
      "name": "topic",
      "outputs": [
        {
          "internalType": "string",
          "name": "",
          "type": "string"
        }
      ],
      "payable": false,
      "stateMutability": "view",
      "type": "function"
    },
    {
      "constant": true,
      "inputs": [
        {
          "internalType": "address",
          "name": "",
          "type": "address"
        }
      ],
      "name": "voters",
      "outputs": [
        {
          "internalType": "address",
          "name": "voterAddress",
          "type": "address"
        },
        {
          "internalType": "string",
          "name": "name",
          "type": "string"
        },
        {
          "internalType": "bool",
          "name": "voted",
          "type": "bool"
        },
        {
          "internalType": "bool",
          "name": "registered",
          "type": "bool"
        },
        {
          "internalType": "uint256",
          "name": "candidateId",
          "type": "uint256"
        }
      ],
      "payable": false,
      "stateMutability": "view",
      "type": "function"
    },
    {
      "constant": true,
      "inputs": [],
      "name": "votersCount",
      "outputs": [
        {
          "internalType": "uint256",
          "name": "",
          "type": "uint256"
        }
      ],
      "payable": false,
      "stateMutability": "view",
      "type": "function"
    },
    {
      "constant": true,
      "inputs": [],
      "name": "timestamp",
      "outputs": [
        {
          "internalType": "uint256",
          "name": "",
          "type": "uint256"
        }
      ],
      "payable": false,
      "stateMutability": "view",
      "type": "function"
    },
    {
      "constant": true,
      "inputs": [],
      "name": "getCandidatesCount",
      "outputs": [
        {
          "internalType": "uint256",
          "name": "",
          "type": "uint256"
        }
      ],
      "payable": false,
      "stateMutability": "view",
      "type": "function"
    },
    {
      "constant": true,
      "inputs": [],
      "name": "getCurrentVoter",
      "outputs": [
        {
          "internalType": "address",
          "name": "",
          "type": "address"
        },
        {
          "internalType": "string",
          "name": "",
          "type": "string"
        },
        {
          "internalType": "bool",
          "name": "",
          "type": "bool"
        },
        {
          "internalType": "bool",
          "name": "",
          "type": "bool"
        },
        {
          "internalType": "uint256",
          "name": "",
          "type": "uint256"
        }
      ],
      "payable": false,
      "stateMutability": "view",
      "type": "function"
    },
    {
      "constant": true,
      "inputs": [
        {
          "internalType": "uint256",
          "name": "_id",
          "type": "uint256"
        }
      ],
      "name": "getCandidateByID",
      "outputs": [
        {
          "internalType": "string",
          "name": "",
          "type": "string"
        },
        {
          "internalType": "string",
          "name": "",
          "type": "string"
        },
        {
          "internalType": "bool",
          "name": "",
          "type": "bool"
        }
      ],
      "payable": false,
      "stateMutability": "view",
      "type": "function"
    },
    {
      "constant": false,
      "inputs": [
        {
          "internalType": "string",
          "name": "_name",
          "type": "string"
        },
        {
          "internalType": "string",
          "name": "_party",
          "type": "string"
        }
      ],
      "name": "addCandidate",
      "outputs": [],
      "payable": false,
      "stateMutability": "nonpayable",
      "type": "function"
    },
    {
      "constant": false,
      "inputs": [
        {
          "internalType": "string",
          "name": "_name",
          "type": "string"
        }
      ],
      "name": "addVoter",
      "outputs": [],
      "payable": false,
      "stateMutability": "nonpayable",
      "type": "function"
    },
    {
      "constant": false,
      "inputs": [
        {
          "internalType": "uint256",
          "name": "_candidateId",
          "type": "uint256"
        }
      ],
      "name": "vote",
      "outputs": [],
      "payable": false,
      "stateMutability": "nonpayable",
      "type": "function"
    },
    {
      "constant": false,
      "inputs": [
        {
          "internalType": "string",
          "name": "_topic",
          "type": "string"
        }
      ],
      "name": "startElection",
      "outputs": [],
      "payable": false,
      "stateMutability": "nonpayable",
      "type": "function"
    },
    {
      "constant": true,
      "inputs": [
        {
          "internalType": "uint256",
          "name": "_candidateId",
          "type": "uint256"
        }
      ],
      "name": "getVoteCountFor",
      "outputs": [
        {
          "internalType": "uint256",
          "name": "",
          "type": "uint256"
        },
        {
          "internalType": "string",
          "name": "",
          "type": "string"
        }
      ],
      "payable": false,
      "stateMutability": "view",
      "type": "function"
    },
    {
      "constant": true,
      "inputs": [],
      "name": "getWinningCandidate",
      "outputs": [
        {
          "internalType": "uint256",
          "name": "",
          "type": "uint256"
        },
        {
          "internalType": "string",
          "name": "",
          "type": "string"
        },
        {
          "internalType": "uint256",
          "name": "",
          "type": "uint256"
        }
      ],
      "payable": false,
      "stateMutability": "view",
      "type": "function"
    }
  ],
  "bytecode": "0x60806040523480156200001157600080fd5b50336000806101000a81548173ffffffffffffffffffffffffffffffffffffffff021916908373ffffffffffffffffffffffffffffffffffffffff1602179055506040518060400160405280600781526020017f556e6b6e6f776e00000000000000000000000000000000000000000000000000815250600190805190602001906200009f929190620000a6565b5062000155565b828054600181600116156101000203166002900490600052602060002090601f016020900481019282601f10620000e957805160ff19168380011785556200011a565b828001600101855582156200011a579182015b8281111562000119578251825591602001919060010190620000fc565b5b5090506200012991906200012d565b5090565b6200015291905b808211156200014e57600081600090555060010162000134565b5090565b90565b6121e080620001656000396000f3fe608060405234801561001057600080fd5b506004361061010b5760003560e01c80638dc2755c116100a2578063b80777ea11610071578063b80777ea146109ae578063bb9aa28f146109cc578063bf63a577146109ea578063f544bed814610a6d578063f927cc2914610b285761010b565b80638dc2755c1461071a57806398c07938146107c8578063a3ec138d146107e6578063aca84892146108f35761010b565b80633477ee2e116100de5780633477ee2e146103ed578063650e4b031461050b57806378e97925146105de57806382202396146105fc5761010b565b80630121b93f14610110578063163843c31461013e57806326541b561461027d5780633197cbb6146103cf575b600080fd5b61013c6004803603602081101561012657600080fd5b8101908080359060200190929190505050610bb9565b005b6101f76004803603602081101561015457600080fd5b810190808035906020019064010000000081111561017157600080fd5b82018360208201111561018357600080fd5b803590602001918460018302840111640100000000831117156101a557600080fd5b91908080601f016020809104026020016040519081016040528093929190818152602001838380828437600081840152601f19601f820116905080830192505050505050509192919290505050610e1d565b604051808060200183151515158152602001828103825284818151815260200191508051906020019080838360005b83811015610241578082015181840152602081019050610226565b50505050905090810190601f16801561026e5780820380516001836020036101000a031916815260200191505b50935050505060405180910390f35b6103cd6004803603604081101561029357600080fd5b81019080803590602001906401000000008111156102b057600080fd5b8201836020820111156102c257600080fd5b803590602001918460018302840111640100000000831117156102e457600080fd5b91908080601f016020809104026020016040519081016040528093929190818152602001838380828437600081840152601f19601f8201169050808301925050505050505091929192908035906020019064010000000081111561034757600080fd5b82018360208201111561035957600080fd5b8035906020019184600183028401116401000000008311171561037b57600080fd5b91908080601f016020809104026020016040519081016040528093929190818152602001838380828437600081840152601f19601f820116905080830192505050505050509192919290505050610efc565b005b6103d7611284565b6040518082815260200191505060405180910390f35b6104196004803603602081101561040357600080fd5b810190808035906020019092919050505061128a565b60405180806020018060200184151515158152602001838103835286818151815260200191508051906020019080838360005b8381101561046757808201518184015260208101905061044c565b50505050905090810190601f1680156104945780820380516001836020036101000a031916815260200191505b50838103825285818151815260200191508051906020019080838360005b838110156104cd5780820151818401526020810190506104b2565b50505050905090810190601f1680156104fa5780820380516001836020036101000a031916815260200191505b509550505050505060405180910390f35b6105136113f1565b604051808673ffffffffffffffffffffffffffffffffffffffff1673ffffffffffffffffffffffffffffffffffffffff168152602001806020018515151515815260200184151515158152602001838152602001828103825286818151815260200191508051906020019080838360005b8381101561059f578082015181840152602081019050610584565b50505050905090810190601f1680156105cc5780820380516001836020036101000a031916815260200191505b50965050505050505060405180910390f35b6105e66115b4565b6040518082815260200191505060405180910390f35b6106286004803603602081101561061257600080fd5b81019080803590602001909291905050506115ba565b60405180806020018060200184151515158152602001838103835286818151815260200191508051906020019080838360005b8381101561067657808201518184015260208101905061065b565b50505050905090810190601f1680156106a35780820380516001836020036101000a031916815260200191505b50838103825285818151815260200191508051906020019080838360005b838110156106dc5780820151818401526020810190506106c1565b50505050905090810190601f1680156107095780820380516001836020036101000a031916815260200191505b509550505050505060405180910390f35b6107466004803603602081101561073057600080fd5b81019080803590602001909291905050506117ea565b6040518083815260200180602001828103825283818151815260200191508051906020019080838360005b8381101561078c578082015181840152602081019050610771565b50505050905090810190601f1680156107b95780820380516001836020036101000a031916815260200191505b50935050505060405180910390f35b6107d06118bd565b6040518082815260200191505060405180910390f35b610828600480360360208110156107fc57600080fd5b81019080803573ffffffffffffffffffffffffffffffffffffffff1690602001909291905050506118c3565b604051808673ffffffffffffffffffffffffffffffffffffffff1673ffffffffffffffffffffffffffffffffffffffff168152602001806020018515151515815260200184151515158152602001838152602001828103825286818151815260200191508051906020019080838360005b838110156108b4578082015181840152602081019050610899565b50505050905090810190601f1680156108e15780820380516001836020036101000a031916815260200191505b50965050505050505060405180910390f35b6109ac6004803603602081101561090957600080fd5b810190808035906020019064010000000081111561092657600080fd5b82018360208201111561093857600080fd5b8035906020019184600183028401116401000000008311171561095a57600080fd5b91908080601f016020809104026020016040519081016040528093929190818152602001838380828437600081840152601f19601f8201169050808301925050505050505091929192905050506119cb565b005b6109b6611cb1565b6040518082815260200191505060405180910390f35b6109d4611cb9565b6040518082815260200191505060405180910390f35b6109f2611cc3565b6040518080602001828103825283818151815260200191508051906020019080838360005b83811015610a32578082015181840152602081019050610a17565b50505050905090810190601f168015610a5f5780820380516001836020036101000a031916815260200191505b509250505060405180910390f35b610b2660048036036020811015610a8357600080fd5b8101908080359060200190640100000000811115610aa057600080fd5b820183602082011115610ab257600080fd5b80359060200191846001830284011164010000000083111715610ad457600080fd5b91908080601f016020809104026020016040519081016040528093929190818152602001838380828437600081840152601f19601f820116905080830192505050505050509192919290505050611d61565b005b610b30611eed565b6040518084815260200180602001838152602001828103825284818151815260200191508051906020019080838360005b83811015610b7c578082015181840152602081019050610b61565b50505050905090810190601f168015610ba95780820380516001836020036101000a031916815260200191505b5094505050505060405180910390f35b600960003373ffffffffffffffffffffffffffffffffffffffff1673ffffffffffffffffffffffffffffffffffffffff16815260200190815260200160002060020160019054906101000a900460ff16610c1257600080fd5b6003544210610c2057600080fd5b600160045411610c98576040517f08c379a00000000000000000000000000000000000000000000000000000000081526004018080602001828103825260168152602001807f4e6f7420656e6f7567682063616e646964617465732e0000000000000000000081525060200191505060405180910390fd5b600960003373ffffffffffffffffffffffffffffffffffffffff1673ffffffffffffffffffffffffffffffffffffffff16815260200190815260200160002060020160009054906101000a900460ff1615610cf257600080fd5b60086000828152602001908152602001600020600081548092919060010191905055506001600960003373ffffffffffffffffffffffffffffffffffffffff1673ffffffffffffffffffffffffffffffffffffffff16815260200190815260200160002060020160006101000a81548160ff02191690831515021790555080600960003373ffffffffffffffffffffffffffffffffffffffff1673ffffffffffffffffffffffffffffffffffffffff168152602001908152602001600020600301819055507f7fe1f3a58eee874cedc684b4668fe1a8e0762aba9fb2f44a7205c15d6a04a95c33604051808273ffffffffffffffffffffffffffffffffffffffff1673ffffffffffffffffffffffffffffffffffffffff16815260200191505060405180910390a150565b600681805160208101820180518482526020830160208501208183528095505050505050600091509050806000018054600181600116156101000203166002900480601f016020809104026020016040519081016040528092919081815260200182805460018160011615610100020316600290048015610edf5780601f10610eb457610100808354040283529160200191610edf565b820191906000526020600020905b815481529060010190602001808311610ec257829003601f168201915b5050505050908060010160009054906101000a900460ff16905082565b6000825111610f73576040517f08c379a00000000000000000000000000000000000000000000000000000000081526004018080602001828103825260118152602001807f4e616d652069732072657175697265642e00000000000000000000000000000081525060200191505060405180910390fd5b6000815111610fea576040517f08c379a00000000000000000000000000000000000000000000000000000000081526004018080602001828103825260178152602001807f5061727479206e616d652069732072657175697265642e00000000000000000081525060200191505060405180910390fd5b6006816040518082805190602001908083835b602083106110205780518252602082019150602081019050602083039250610ffd565b6001836020036101000a038019825116818451168082178552505050505050905001915050908152602001604051809103902060010160009054906101000a900460ff16156110ba576040517f08c379a000000000000000000000000000000000000000000000000000000000815260040180806020018281038252602d81526020018061217f602d913960400191505060405180910390fd5b600460008154809291906001019190505550604051806060016040528083815260200182815260200160011515815250600560006004548152602001908152602001600020600082015181600001908051906020019061111b929190612010565b506020820151816001019080519060200190611138929190612010565b5060408201518160020160006101000a81548160ff0219169083151502179055509050506040518060400160405280838152602001600115158152506006826040518082805190602001908083835b602083106111aa5780518252602082019150602081019050602083039250611187565b6001836020036101000a038019825116818451168082178552505050505050905001915050908152602001604051809103902060008201518160000190805190602001906111f9929190612010565b5060208201518160010160006101000a81548160ff0219169083151502179055509050507fc480df479e597a0d7b54b62651762c32baa171b1bd36088781e2d38f91dbb83c33604051808273ffffffffffffffffffffffffffffffffffffffff1673ffffffffffffffffffffffffffffffffffffffff16815260200191505060405180910390a15050565b60035481565b6005602052806000526040600020600091509050806000018054600181600116156101000203166002900480601f0160208091040260200160405190810160405280929190818152602001828054600181600116156101000203166002900480156113365780601f1061130b57610100808354040283529160200191611336565b820191906000526020600020905b81548152906001019060200180831161131957829003601f168201915b505050505090806001018054600181600116156101000203166002900480601f0160208091040260200160405190810160405280929190818152602001828054600181600116156101000203166002900480156113d45780601f106113a9576101008083540402835291602001916113d4565b820191906000526020600020905b8154815290600101906020018083116113b757829003601f168201915b5050505050908060020160009054906101000a900460ff16905083565b600060606000806000611402612090565b600960003373ffffffffffffffffffffffffffffffffffffffff1673ffffffffffffffffffffffffffffffffffffffff1681526020019081526020016000206040518060a00160405290816000820160009054906101000a900473ffffffffffffffffffffffffffffffffffffffff1673ffffffffffffffffffffffffffffffffffffffff1673ffffffffffffffffffffffffffffffffffffffff168152602001600182018054600181600116156101000203166002900480601f01602080910402602001604051908101604052809291908181526020018280546001816001161561010002031660029004801561153b5780601f106115105761010080835404028352916020019161153b565b820191906000526020600020905b81548152906001019060200180831161151e57829003601f168201915b505050505081526020016002820160009054906101000a900460ff161515151581526020016002820160019054906101000a900460ff1615151515815260200160038201548152505090508060000151816020015182604001518360600151846080015183935095509550955095509550509091929394565b60025481565b60608060006005600085815260200190815260200160002060020160009054906101000a900460ff16611655576040517f08c379a00000000000000000000000000000000000000000000000000000000081526004018080602001828103825260198152602001807f43616e64696461746520646f6573206e6f742065786973742e0000000000000081525060200191505060405180910390fd5b60056000858152602001908152602001600020600001600560008681526020019081526020016000206001016005600087815260200190815260200160002060020160009054906101000a900460ff16828054600181600116156101000203166002900480601f01602080910402602001604051908101604052809291908181526020018280546001816001161561010002031660029004801561173a5780601f1061170f5761010080835404028352916020019161173a565b820191906000526020600020905b81548152906001019060200180831161171d57829003601f168201915b50505050509250818054600181600116156101000203166002900480601f0160208091040260200160405190810160405280929190818152602001828054600181600116156101000203166002900480156117d65780601f106117ab576101008083540402835291602001916117d6565b820191906000526020600020905b8154815290600101906020018083116117b957829003601f168201915b505050505091509250925092509193909250565b60006060600860008481526020019081526020016000205460056000858152602001908152602001600020600001808054600181600116156101000203166002900480601f0160208091040260200160405190810160405280929190818152602001828054600181600116156101000203166002900480156118ad5780601f10611882576101008083540402835291602001916118ad565b820191906000526020600020905b81548152906001019060200180831161189057829003601f168201915b5050505050905091509150915091565b60075481565b60096020528060005260406000206000915090508060000160009054906101000a900473ffffffffffffffffffffffffffffffffffffffff1690806001018054600181600116156101000203166002900480601f0160208091040260200160405190810160405280929190818152602001828054600181600116156101000203166002900480156119955780601f1061196a57610100808354040283529160200191611995565b820191906000526020600020905b81548152906001019060200180831161197857829003601f168201915b5050505050908060020160009054906101000a900460ff16908060020160019054906101000a900460ff16908060030154905085565b6000815111611a42576040517f08c379a00000000000000000000000000000000000000000000000000000000081526004018080602001828103825260118152602001807f4e616d652069732072657175697265642e00000000000000000000000000000081525060200191505060405180910390fd5b600960003373ffffffffffffffffffffffffffffffffffffffff1673ffffffffffffffffffffffffffffffffffffffff16815260200190815260200160002060020160019054906101000a900460ff1615611b05576040517f08c379a000000000000000000000000000000000000000000000000000000000815260040180806020018281038252601a8152602001807f596f7527766520616c726561647920726567697374657265642e00000000000081525060200191505060405180910390fd5b6007600081548092919060010191905055506040518060a001604052803373ffffffffffffffffffffffffffffffffffffffff1681526020018281526020016000151581526020016001151581526020016000815250600960003373ffffffffffffffffffffffffffffffffffffffff1673ffffffffffffffffffffffffffffffffffffffff16815260200190815260200160002060008201518160000160006101000a81548173ffffffffffffffffffffffffffffffffffffffff021916908373ffffffffffffffffffffffffffffffffffffffff1602179055506020820151816001019080519060200190611bfd929190612010565b5060408201518160020160006101000a81548160ff02191690831515021790555060608201518160020160016101000a81548160ff021916908315150217905550608082015181600301559050507f387e3d20b36ce3254acb134e913909d19062c2c475ffa1734569bc795869da1033604051808273ffffffffffffffffffffffffffffffffffffffff1673ffffffffffffffffffffffffffffffffffffffff16815260200191505060405180910390a150565b600042905090565b6000600454905090565b60018054600181600116156101000203166002900480601f016020809104026020016040519081016040528092919081815260200182805460018160011615610100020316600290048015611d595780601f10611d2e57610100808354040283529160200191611d59565b820191906000526020600020905b815481529060010190602001808311611d3c57829003601f168201915b505050505081565b600060025414611dd9576040517f08c379a000000000000000000000000000000000000000000000000000000000815260040180806020018281038252601a8152602001807f456c656374696f6e7320616c72656164792072756e6e696e672e00000000000081525060200191505060405180910390fd5b600160045411611e51576040517f08c379a00000000000000000000000000000000000000000000000000000000081526004018080602001828103825260168152602001807f4e6f7420656e6f7567682063616e646964617465732e0000000000000000000081525060200191505060405180910390fd5b600081511115611e73578060019080519060200190611e719291906120d9565b505b4260028190555061012c600254016003819055507fe0ddf11d0244c99c28842ef50bf3d36ce5897c2bea80c9d6f8fc84e03c24f61033604051808273ffffffffffffffffffffffffffffffffffffffff1673ffffffffffffffffffffffffffffffffffffffff16815260200191505060405180910390a150565b6000606060008060009050600080905060008090505b6004548111611f4e576008600082815260200190815260200160002054831015611f4157600860008281526020019081526020016000205492508091505b8080600101915050611f03565b50806005600083815260200190815260200160002060000183818054600181600116156101000203166002900480601f016020809104026020016040519081016040528092919081815260200182805460018160011615610100020316600290048015611ffc5780601f10611fd157610100808354040283529160200191611ffc565b820191906000526020600020905b815481529060010190602001808311611fdf57829003601f168201915b505050505091509450945094505050909192565b828054600181600116156101000203166002900490600052602060002090601f016020900481019282601f1061205157805160ff191683800117855561207f565b8280016001018555821561207f579182015b8281111561207e578251825591602001919060010190612063565b5b50905061208c9190612159565b5090565b6040518060a00160405280600073ffffffffffffffffffffffffffffffffffffffff16815260200160608152602001600015158152602001600015158152602001600081525090565b828054600181600116156101000203166002900490600052602060002090601f016020900481019282601f1061211a57805160ff1916838001178555612148565b82800160010185558215612148579182015b8281111561214757825182559160200191906001019061212c565b5b5090506121559190612159565b5090565b61217b91905b8082111561217757600081600090555060010161215f565b5090565b9056fe5468697320706172747920616c7265616479206861766520726567697374657265642063616e6469646174652ea265627a7a72315820f9fc338ec7c7382321ee58cfd597df65b8b2ceb047cff1c4cfcf5e572ba3ee7464736f6c63430005100032",
  "source": "// SPDX-License-Identifier: MIT\r\n\r\npragma solidity >=0.4.21 <0.9.0;\r\nimport \"./Votes.sol\";\r\n\r\ncontract Election { \r\n    // candidates\r\n    address private admin;\r\n    string public topic;\r\n    uint256 public startTime;\r\n    uint256 public endTime;\r\n    uint256 private candidatesCount;\r\n    struct Candidate {\r\n        string candidatename;\r\n        string partyname;\r\n        bool registered;\r\n    }\r\n    struct Status{\r\n        string candidatename;\r\n        bool approved;\r\n    }\r\n    mapping(uint256 => Candidate) public candidates; // checks unique id per party candidate\r\n    mapping(string => Status) public candidates_registered; //checks if unique candidate per party\r\n    \r\n    // voters\r\n    uint256 public votersCount;\r\n    struct Voter {\r\n        address voterAddress;\r\n        string name;\r\n        bool voted;\r\n        bool registered; // to check if this voter has registered\r\n        uint256 candidateId;\r\n    }\r\n    mapping(uint256 => uint256) private voteCount;\r\n    mapping(address => Voter) public voters;\r\n\r\n    // constructor call\r\n    constructor() public {\r\n        admin = msg.sender;\r\n        topic = \"Unknown\";\r\n    }\r\n\r\n    modifier adminOnly() {\r\n        require(admin == msg.sender);\r\n        _; //used inside a modifier to specify when the function should be executed.\r\n    }\r\n\r\n    modifier registeredVotersOnly() {\r\n        require(voters[msg.sender].registered);\r\n        _;\r\n    }\r\n\r\n    modifier withinTimeLimit() {\r\n        require(block.timestamp < endTime);\r\n        _;\r\n    }\r\n\r\n    modifier afterTimeLimit() {\r\n        require(block.timestamp > endTime);\r\n        _;\r\n    }\r\n\r\n    event voterRegistered(address _voterAddress);\r\n\r\n    event candidateRegistered(address _candidateAddress);\r\n\r\n    event voteCasted(address _voterAddress);\r\n\r\n    event electionStarted(address _candidateAddress);\r\n\r\n    function timestamp() external view returns (uint256) {\r\n        return block.timestamp;\r\n    }\r\n\r\n    function getCandidatesCount()\r\n        public\r\n        view\r\n        returns (\r\n            uint256\r\n        )\r\n    {\r\n        return (\r\n            candidatesCount\r\n        );\r\n    }\r\n\r\n    function getCurrentVoter()\r\n        public\r\n        view\r\n        returns (\r\n            address,\r\n            string memory,\r\n            bool,\r\n            bool,\r\n            uint256\r\n        )\r\n    {\r\n        Voter memory voter = voters[msg.sender];\r\n        return (\r\n            voter.voterAddress,\r\n            voter.name,\r\n            voter.voted,\r\n            voter.registered,\r\n            voter.candidateId\r\n        );\r\n    }\r\n\r\n    function getCandidateByID(uint _id)\r\n        public\r\n        view\r\n        returns (\r\n            string memory,\r\n            string memory,\r\n            bool\r\n        )\r\n    {\r\n        require(candidates[_id].registered, \"Candidate does not exist.\");\r\n        return (\r\n            candidates[_id].candidatename,\r\n            candidates[_id].partyname,\r\n            candidates[_id].registered\r\n            \r\n        );\r\n    }\r\n\r\n    function addCandidate(string memory _name, string memory _party) public {\r\n        //require(admin == msg.sender, \"You're not the admin\");\r\n        require(bytes(_name).length>0, \"Name is required.\");\r\n        require(bytes(_party).length>0, \"Party name is required.\");\r\n        require(!candidates_registered[_party].approved, \"This party already have registered candidate.\");\r\n        candidatesCount++;\r\n        candidates[candidatesCount] = Candidate(_name, _party, true);\r\n        candidates_registered[_party] = Status(_name, true);\r\n        // Events are emitted using `emit`, followed by\r\n        // the name of the event and the arguments\r\n        // (if any) in parentheses.\r\n        // Emit keyword is used to emit an event in solidity, which can be read by the client in Dapp.\r\n        // Event in solidity is to used to log the transactions happening in the blockchain.\r\n        emit candidateRegistered(msg.sender);\r\n    }\r\n\r\n    function addVoter(string memory _name) public {\r\n        require(bytes(_name).length>0, \"Name is required.\");\r\n        require(!voters[msg.sender].registered, \"You've already registered.\");\r\n        votersCount++;\r\n        voters[msg.sender] = Voter(msg.sender, _name, false, true, 0);\r\n        // Events are emitted using `emit`, followed by\r\n        // the name of the event and the arguments\r\n        // (if any) in parentheses.\r\n        // Emit keyword is used to emit an event in solidity, which can be read by the client in Dapp.\r\n        // Event in solidity is to used to log the transactions happening in the blockchain.\r\n        emit voterRegistered(msg.sender);\r\n    }\r\n\r\n    // main voting function takes your selected candidate id and increments their vote count\r\n    function vote(uint256 _candidateId)\r\n        public\r\n        registeredVotersOnly\r\n        withinTimeLimit\r\n    {\r\n        require(candidatesCount>1, \"Not enough candidates.\"); // atleast two candidates\r\n        require(!voters[msg.sender].voted);\r\n        voteCount[_candidateId]++;\r\n        voters[msg.sender].voted = true;\r\n        voters[msg.sender].candidateId = _candidateId;\r\n        emit voteCasted(msg.sender);\r\n    }\r\n\r\n\r\n    function startElection(string memory _topic) public {\r\n        //require(admin == msg.sender, \"You're not the admin\");\r\n        require(startTime==0, \"Elections already running.\");\r\n        require(candidatesCount>1, \"Not enough candidates.\"); // atleast two candidates\r\n        if (bytes(_topic).length>0){\r\n            topic = _topic;\r\n        }\r\n        startTime = block.timestamp;\r\n        endTime = startTime + 5 minutes;\r\n        emit electionStarted(msg.sender);\r\n    }\r\n\r\n    function getVoteCountFor(uint256 _candidateId)\r\n        external\r\n        view\r\n        returns (uint256, string memory)\r\n    {\r\n        return (voteCount[_candidateId], candidates[_candidateId].candidatename);\r\n    }\r\n\r\n    // returns (id, name, voteCount) of the winning candidate\r\n    function getWinningCandidate()\r\n        external\r\n        view\r\n        returns (\r\n            uint256,\r\n            string memory,\r\n            uint256\r\n        )\r\n    {\r\n        uint256 maxVote = 0;\r\n        uint256 maxVoteCandidateId = 0;\r\n        for (uint256 i = 0; i <= candidatesCount; i++) {\r\n            if (maxVote < voteCount[i]) {\r\n                maxVote = voteCount[i];\r\n                maxVoteCandidateId = i;\r\n            }\r\n        }\r\n        return (\r\n            maxVoteCandidateId,\r\n            candidates[maxVoteCandidateId].candidatename,\r\n            maxVote\r\n        );\r\n    }\r\n}\r\n",
  "sourcePath": "C:\\Users\\Abhishek Thakur\\Documents\\Voting-Solidity\\contracts\\Election.sol",
  "compiler": {
    "name": "solc",
    "version": "0.5.16+commit.9c3226ce.Emscripten.clang"
  },
  "schemaVersion": "3.4.10",
  "updatedAt": "2022-12-06T16:47:30.309Z",
  "devdoc": {
    "methods": {}
  },
  "userdoc": {
    "methods": {}
  }
}