{
  "contractName": "Votes",
  "abi": [
    {
      "inputs": [],
      "payable": false,
      "stateMutability": "nonpayable",
      "type": "constructor"
    },
    {
      "anonymous": false,
      "inputs": [
        {
          "indexed": true,
          "internalType": "uint256",
          "name": "_voteId",
          "type": "uint256"
        }
      ],
      "name": "votedEvent",
      "type": "event"
    },
    {
      "constant": true,
      "inputs": [
        {
          "internalType": "address",
          "name": "",
          "type": "address"
        }
      ],
      "name": "voters",
      "outputs": [
        {
          "internalType": "bool",
          "name": "",
          "type": "bool"
        }
      ],
      "payable": false,
      "stateMutability": "view",
      "type": "function"
    },
    {
      "constant": true,
      "inputs": [],
      "name": "votersCount",
      "outputs": [
        {
          "internalType": "uint256",
          "name": "",
          "type": "uint256"
        }
      ],
      "payable": false,
      "stateMutability": "view",
      "type": "function"
    },
    {
      "constant": true,
      "inputs": [
        {
          "internalType": "uint256",
          "name": "",
          "type": "uint256"
        }
      ],
      "name": "votes",
      "outputs": [
        {
          "internalType": "uint256",
          "name": "id",
          "type": "uint256"
        },
        {
          "internalType": "string",
          "name": "option",
          "type": "string"
        },
        {
          "internalType": "uint256",
          "name": "voteCount",
          "type": "uint256"
        }
      ],
      "payable": false,
      "stateMutability": "view",
      "type": "function"
    },
    {
      "constant": false,
      "inputs": [
        {
          "internalType": "uint256",
          "name": "_voterId",
          "type": "uint256"
        }
      ],
      "name": "vote",
      "outputs": [],
      "payable": false,
      "stateMutability": "nonpayable",
      "type": "function"
    }
  ],
  "bytecode": "0x608060405234801561001057600080fd5b506100556040518060400160405280600381526020017f596573000000000000000000000000000000000000000000000000000000000081525061009e60201b60201c565b6100996040518060400160405280600281526020017f4e6f00000000000000000000000000000000000000000000000000000000000081525061009e60201b60201c565b6101bf565b60026000815480929190600101919050555060405180606001604052806002548152602001828152602001600081525060016000600254815260200190815260200160002060008201518160000155602082015181600101908051906020019061010992919061011a565b506040820151816002015590505050565b828054600181600116156101000203166002900490600052602060002090601f016020900481019282601f1061015b57805160ff1916838001178555610189565b82800160010185558215610189579182015b8281111561018857825182559160200191906001019061016d565b5b509050610196919061019a565b5090565b6101bc91905b808211156101b85760008160009055506001016101a0565b5090565b90565b6103e9806101ce6000396000f3fe608060405234801561001057600080fd5b506004361061004c5760003560e01c80630121b93f146100515780635df813301461007f57806398c0793814610134578063a3ec138d14610152575b600080fd5b61007d6004803603602081101561006757600080fd5b81019080803590602001909291905050506101ae565b005b6100ab6004803603602081101561009557600080fd5b81019080803590602001909291905050506102cc565b6040518084815260200180602001838152602001828103825284818151815260200191508051906020019080838360005b838110156100f75780820151818401526020810190506100dc565b50505050905090810190601f1680156101245780820380516001836020036101000a031916815260200191505b5094505050505060405180910390f35b61013c61038e565b6040518082815260200191505060405180910390f35b6101946004803603602081101561016857600080fd5b81019080803573ffffffffffffffffffffffffffffffffffffffff169060200190929190505050610394565b604051808215151515815260200191505060405180910390f35b6000803373ffffffffffffffffffffffffffffffffffffffff1673ffffffffffffffffffffffffffffffffffffffff16815260200190815260200160002060009054906101000a900460ff161561020457600080fd5b60008111801561021657506002548111155b61021f57600080fd5b60016000803373ffffffffffffffffffffffffffffffffffffffff1673ffffffffffffffffffffffffffffffffffffffff16815260200190815260200160002060006101000a81548160ff0219169083151502179055506001600082815260200190815260200160002060020160008154809291906001019190505550807ffff3c900d938d21d0990d786e819f29b8d05c1ef587b462b939609625b684b1660405160405180910390a250565b6001602052806000526040600020600091509050806000015490806001018054600181600116156101000203166002900480601f01602080910402602001604051908101604052809291908181526020018280546001816001161561010002031660029004801561037e5780601f106103535761010080835404028352916020019161037e565b820191906000526020600020905b81548152906001019060200180831161036157829003601f168201915b5050505050908060020154905083565b60025481565b60006020528060005260406000206000915054906101000a900460ff168156fea265627a7a72315820da23ff21a6ab54a482ed6cfef7926adc7849f29f80e63f96e855526fb9e68a7864736f6c63430005100032",
  "source": "// SPDX-License-Identifier: MIT\r\npragma solidity >=0.4.22 <0.9.0;\r\n\r\ncontract Votes {\r\n    // model vote\r\n    struct Vote {\r\n        uint256 id;\r\n        string option;\r\n        uint256 voteCount;\r\n    }\r\n\r\n    // Store accounts that have voted\r\n    mapping(address => bool) public voters;\r\n\r\n    // store vote\r\n    // fetch vote\r\n    mapping(uint256 => Vote) public votes;\r\n\r\n    // voted event\r\n    event votedEvent(uint256 indexed _voteId);\r\n\r\n    // read votes\r\n    uint256 public votersCount;\r\n\r\n    function addVoter(string memory _option) private {\r\n        votersCount++;\r\n        votes[votersCount] = Vote(votersCount, _option, 0);\r\n    }\r\n\r\n    // constr\r\n    constructor() public {\r\n        addVoter(\"Yes\");\r\n        addVoter(\"No\");\r\n    }\r\n\r\n    function vote(uint256 _voterId) public {\r\n        // require that they haven't voted before\r\n        require(!voters[msg.sender]);\r\n\r\n        // require a valid candidate\r\n        require(_voterId > 0 && _voterId <= votersCount);\r\n\r\n        // record that voter has voted\r\n        voters[msg.sender] = true;\r\n\r\n        // update candidate vote Count\r\n        votes[_voterId].voteCount++;\r\n\r\n        // trigger voted event\r\n        emit votedEvent(_voterId);\r\n    }\r\n}\r\n",
  "sourcePath": "C:\\Users\\Abhishek Thakur\\Documents\\Voting-Solidity\\contracts\\Votes.sol",
  "compiler": {
    "name": "solc",
    "version": "0.5.16+commit.9c3226ce.Emscripten.clang"
  },
  "schemaVersion": "3.4.10",
  "updatedAt": "2022-12-06T16:47:30.334Z",
  "devdoc": {
    "methods": {}
  },
  "userdoc": {
    "methods": {}
  }
}